:4000000000800020110000008D0300008D03000080B500AF024B034A12681A6000F0BAF9BC760040FA46004010B5054C237833B9044B13B10448AFF300800123237010BD46
:400040008081FF1F00000000B836000008B5064B1BB106480649AFF300800648036813B1054B03B1984708BD00000000B83600008481FF1F0881FF1F0000000000000000FD
:4000800080B588B000AF0023FB6131E0F86902F05BFB02460B461046194633A3D3E9002302F0B8FB02460B46104619464FF00002314B02F0D9FC02460B461046194601F032
:4000C000ABF802460B461046194629A3D3E9002302F0A0FB02460B461046194602F034FE0146264BFA6943F82210FB690133FB61FB69132BCADD00F04FFC00F081FE00F006
:40010000F1FC00F037FF00F0F3FF62B600BF1C4B1A6844F61F639A42F9DD0023FB611DE0184BFA6933F812307B83B7F91A309BB23A1D104614491A4602F0A0FE3B1D1846F8
:4001400002F0C0FE03467B617B69DBB23A1D1046194601F027F8FB690133FB61FA6944F61F639A42DCDDFEE7A7E8482EFF2119400000000000FEAF40000034408483FF1F8C
:400180009C81FF1FD483FF1FC0360000AFF3008080B586B000AF786000233B61204B1A68204B796843F82210786800F077F8F860F86800F0AFF8B860194B1A681A4BB9680E
:4001C00043F8221000233B6100237B6114E0144B1A687B69D31A03F00F02124B53F82230124A796952F8212002FB03F33A6913443B617B6901337B617B690F2BE7DD3B6964
:4002000003F500631B133B61054B1B68013303F00F02034B1A603B6918461837BD4680BD6082FF1FA081FF1F2082FF1FE081FF1F80B487B000AF786004233B6100237B6103
:400240001FE0144B7A6953F822307A6802FB03F303F500631B13FB603B69FA6802FB03F303F500631B13FB600B4B7A6953F82220FB68D11A084B7A6943F822107B6901333B
:400280007B617B690F2BDCDD1C37BD465DF8047B704700BF2082FF1FE081FF1F80B485B000AF78600023FB600023BB60164B1A68164B796843F822100023BB6014E0124BDF
:4002C0001A68BB68D31A03F00F02104B53F822300F4AB96852F8212002FB03F3FA681344FB60BB680133BB60BB680F2BE7DDFB6803F500631B13FB60FB6818461437BD467B
:400300005DF8047B704700BFE482FF1F6482FF1FA482FF1F80B485B000AF78600023FB600023BB60164B1A68164B796843F822100023BB6014E0124B1A68BB68D31A03F055
:400340000F02104B53F822300F4AB96852F8212002FB03F3FA681344FB60BB680133BB60BB680F2BE7DDFB6803F500631B13FB60FB6818461437BD465DF8047B704700BF35
:400380006883FF1FE882FF1F2883FF1F80B400AFFEE700BF80B586B000AF214B7B61214B3B611F4B7B611F4B3B612FE03B691B68FB603B695B68BB603B699B683B6000232E
:4003C0007B600AE0BB681A1DBA60FA68111DF96012681A607B6804337B607A683B689A42F0D13B69DB683B6000237B6007E0BB681A1DBA6000221A607B6804337B607A6882
:400400003B689A42F3D13B6910333B617B695A1E7A61002BCAD102F0BFFCFFF731FEFEE7010000002C39000080B582B000AF174B174A1A60174B174A126842F400721A602A
:4004400000237B600FE07B68032B04D8124B7A6853F8223000E0114B114A796842F821307B6801337B607B682F2BECD90D4B1B78DAB20D4B1A700D4B094A1A6000F080F9E8
:400480000B4B00221A600837BD4680BD0CED00E00004FA0514ED00E0000000008D0300000080FF1FBC7600400481FF1F08ED00E00081FF1F80B582B000AF786039607868F0
:4004C00000213A6802F097FC0837BD4680BD00BF80B584B000AFF860B9607A60F868B9687A6802F07FFC1037BD4680BD80B483B000AF0346FB71FEE780B487B000AF78601A
:40050000396000233B6100237B6126E07B699B007A6813441B68BB60BB68FB73BB6823F0FF03BB6013E03B695B003A6813441B781A46BB6813443A69520039680A4452781E
:400540001A703B6901333B61FB7B013BFB73FB7B002BE8D17B6901337B617B69172BD5D91C37BD465DF8047B704700BF80B582B000AF364B17221A80354B18221A70354B6D
:4005800019221A80344B18221A70344B40F6B7321A80334B18221A70324B02221A704FF0402308221A70304B03221A702F4B304A1278D2B21A702F4B08221A802E4B41F288
:4005C00051221A800023FB7019237B6014E0FB785B00DAB2294B1B78DBB203F00103DBB21343DBB203F00303FB704FF4F07000F057F97B68013B7B607B68002B02D0FB786C
:40060000032BE4D17B68002B02D10320FFF76EFF1B4B4FF480721A80194B07221A70194B00221A70184B48221A70154B00221A70164B02221A70164B154A1278D2B242F0A2
:400640000702D2B21A700837BD4680BD80400040824000408440004086400040884000408A4000400043004000420040A1460040080100492242004020420040254200405B
:4006800004400040064000400840004001400040A243004080B483B000AF284B1B78FB71274B1B78BB71274B1B787B71264BFA7902F00702D2B21A70244BFA791209D2B2EA
:4006C0001A701F4BBA7942F00302D2B21A701D4B7A7942F00302D2B21A701D4B4FF442721A801C4B80221A701B4B01221A701B4B10221A701A4B20221A701A4B10221A70DB
:40070000194B20221A70194B10221A70184B20221A70184B02221A70174B02221A70094B7A791A70064BBA791A70144B44221A700C37BD465DF8047B704700BFCF01004942
:40074000F8460040F94600406E5800406F5800400C51004009590040835A0040905A0040CB5A0040CC5A0040285B00402C5B0040585B004041580040A74300407658004090
:4007800080B582B000AF72B6364B364A1278D2B242F00402D2B21A700023FB7113E0FA7913465B0013445B002F4A13443B603B681A683B689B889BB210461946FFF77AFE85
:4007C000FB790133FB71FB79072BE8D94FF090402649FFF791FE264B40F203121A80254B244A1278D2B242F00202D2B21A70224B214A1278D2B242F00202D2B21A701F4B65
:400800001E4A1278D2B242F04002D2B21A701C4B1B4A1278D2B242F01002D2B21A70194819490A22FFF754FE184B184A1278D2B242F00802D2B21A70154B01221A70FFF73D
:4008400095FE134B81221A70124B01221A70FFF721FF114809490E22FFF73AFE0837BD4680BD00BFE8460040C4360000600000484A5800400350014013500140A0430040A6
:40088000C243004000510040E8010048224300400048004004000840B0430040000000000230800800F0058000BF013800467FF4FCAF7047EFF3108072B6704780F31088E7
:4008C000704700BFAFF3008080B483B000AF0346FB7101BE0C37BD465DF8047B704700BF80B582B000AF0346FB80FB88044A127802FB03F31846FFF7D3FF0837BD4680BD79
:400900001481FF1F80B584B000AF03463960FB710F4B1B68FB60FB791F2B02D90020FFF7D3FFFB7903F01F0310339B00FA6813441B68BB60FB7903F01F0310339B00FA685E
:4009400013443A681A60BB6818461037BD4680BD08ED00E080B582B000AF02460B46FA71BB71BB79072B02D90020FFF7ADFFFB791F2B02D90020FFF7A7FFFB7903F01F0300
:4009800003F1604303F56443BA795201D2B21A700837BD4680BD00BF80B500AF00F096F8044800F063F8072000F072F800F082F880BD00BFB909000080B586B000AF4FF430
:4009C0008073BB604FF47A537B6034237B6100233B61234B1B68DBB2184600F06BFB02F013FA38613B69DBB2184600F017FB00F04DF90346FB603869FFF7CAFBF868FFF725
:400A000017FC3B69DBB2184600F04EFA154B1B685A1C144B1A60134B1B68142B02D1114B00221A600E4B1A6844F61F639A420DDC0D4B1A680A4B1B685B001344FA6892B259
:400A40001A80074B1B685A1C054B1A60044B1B68DBB2184600F010FB1837BD4680BD00BF9C81FF1F6C83FF1FD483FF1F80B485B000AF7860054B1B68FB60FB6844337A682A
:400A80001A601437BD465DF8047B704708ED00E080B483B000AF0346FB71054BFA795201D2B21A700C37BD465DF8047B704700BF01E400E080B400AF034B02221A60BD46F8
:400AC0005DF8047B704700BF00E100E080B400AF034B02221A60BD465DF8047B704700BF80E100E080B500AF054B1B78002B04D100F008F8024B01221A7000F025F880BD93
:400B00007083FF1F80B500AF102000F027F900200721FFF71FFF00200849FFF7F3FE084B074A1278D2B242F00602D2B21A700C2000F084F8034B00221A8080BD510D000095
:400B4000095900401C20002080B582B000AFFFF7B1FE0346FB712E4B2D4A1278D2B242F00202D2B21A702B4B2A4A1278D2B242F00202D2B21A70284B274A1278D2B242F065
:400B80000102D2B21A70254B244A1278D2B242F00102D2B21A70224B1B78BB71BB7943F00203BB71BB7943F00103BB711C4BBA791A701C4B04221A701B4B1B4A1278D2B286
:400BC00042F04002D2B21A70174B174A1278D2B222F00302D2B21A70144BCE221A70144B02221A70134B134A1278D2B242F00802D2B21A700A20FFF773FE0F4B01221A60FC
:400C0000FB791846FFF75AFE0837BD4680BD00BFAB430040BB430040A2430040B24300400B5900400E5900400D59004008590040164600402F5B004080E200E080B584B0ED
:400C400000AF0346FB71FB790A2B07D00C2B02D0082B06D008E0C423FB730BE08423FB7308E04423FB7305E0C423FB730020FFF72BFE00BF044BFA7B1A70FB79184600F03C
:400C80001FF81037BD4680BD0A59004080B483B000AF094B1B88FB80084B1B889BB29BB2FA88D31A9BB29BB21BB218460C37BD465DF8047B704700BFA25B00401620002084
:400CC00080B584B000AF0346FB71FB790A2B0BD00C2B02D0082B0ED013E04FF48053FB604FF400637B8114E04FF48063FB604FF400737B810DE04FF48073FB6080237B813F
:400D000007E00023FB6000237B810020FFF7DCFD00BF0C4B00221A80FB6842F2107202FB03F303F58063002B01DA03F2FF73DB121A46054B1A607A89044B1A801037BD46CD
:400D400080BD00BF14200020182000201620002080B400AFBD465DF8047B704780B483B000AF0346FB71094B084A1278D2B2D1B2FA7922F00702D2B20A43D2B2D2B21A7011
:400D80000C37BD465DF8047B704700BF8240004080B500AF0A4B00221A700A4B00221A70094B094A1278D2B242F00802D2B21A70002000F059F8002000F036F880BD00BF21
:400DC0002858004029580040975A004080B400AF094B094A1278D2B242F00402D2B21A70064B064A1278D2B242F00402D2B21A70BD465DF8047B7047A8430040B84300407A
:400E000080B500AF074B1B78002B04D1FFF7C0FF044B01221A70FFF7D9FF642000F044F880BD00BF7183FF1F80B483B000AF0346FB710C4B0B4A1278D2B222F00202D2B28D
:400E40001A70084B074A1278D1B2FA7902F00202D2B20A43D2B21A700C37BD465DF8047B704700BF2858004080B582B000AF0346FB710C4B0B4A1278D2B222F00C02D2B276
:400E80001A70084B074A1278D1B2FA7902F00C02D2B20A43D2B21A7000F016F80837BD4680BD00BF2858004080B483B000AF0346FB71044BFA791A700C37BD465DF8047B78
:400EC000704700BF825B004080B483B000AF0B4B1B78DBB203F00C039B08DBB20633FB71074AFB7903F1924303F594731B78DBB213700C37BD465DF8047B7047285800403B
:400F00000A46004080B500AF0A4B00221A700A4B00221A70094B094A1278D2B242F00802D2B21A70002000F059F8002000F036F880BD00BF2058004021580040875A00400F
:400F400080B400AF094B094A1278D2B242F00102D2B21A70064B064A1278D2B242F00102D2B21A70BD465DF8047B7047A8430040B843004080B500AF074B1B78002B04D1E7
:400F8000FFF7C0FF044B01221A70FFF7D9FF642000F044F880BD00BF7283FF1F80B483B000AF0346FB710C4B0B4A1278D2B222F00202D2B21A70084B074A1278D1B2FA7926
:400FC00002F00202D2B20A43D2B21A700C37BD465DF8047B704700BF2058004080B582B000AF0346FB710C4B0B4A1278D2B222F00C02D2B21A70084B074A1278D1B2FA79FD
:4010000002F00C02D2B20A43D2B21A7000F016F80837BD4680BD00BF2058004080B483B000AF0346FB71044BFA791A700C37BD465DF8047B704700BF805B004080B483B0B4
:4010400000AF0B4B1B78DBB203F00C039B08DBB20633FB71074AFB7903F1924303F590731B78DBB213700C37BD465DF8047B7047205800400846004080B485B000AF0346D0
:40108000FB710B4B1B78DBB223F02003FB73084BFA795201D2B202F02002D1B2FA7B0A43D2B21A701437BD465DF8047B704700BF0051004080B485B000AF0346FB710B4B5A
:4010C0001B78DBB223F04003FB73084BFA799201D2B202F04002D1B2FA7B0A43D2B21A701437BD465DF8047B704700BF0051004080B500AF054B1B78002B04D100F008F8C8
:40110000024B01221A7000F019F880BD7383FF1F80B400AF064B06221A70064B47221A70054B00221A70BD465DF8047B704700BF23640040336400408264004080B582B0C5
:4011400000AFFFF7B7FB0346FB71084B074A1278D2B242F01002D2B21A7000F043F8FB791846FFF7ABFB0837BD4680BD9264004080B483B000AF0346FB7100BF074B1B78A2
:40118000DBB203F00403002BF8D1054BFA791A700C37BD465DF8047B704700BF626400404264004080B584B000AF78600B46FB700023FB730A4B1B78002B0ED009E0FB7B5E
:4011C0007A6813441B781846FFF7D2FFFB7B0133FB73FA7BFB789A42F1D31037BD4680BD7383FF1F80B400AF094B094A1278D2B242F00202D2B21A70064B064A1278D2B238
:4012000042F00202D2B21A70BD465DF8047B7047A2430040B243004070B5224E21F00044B44286B002460B461ADD1F4DAC4203DD01F03CF906B070BD02AA00F039F800F0DC
:40124000030001281DD0022812D008B3DDE90201DDE9042300F04CFA01F1004106B070BD002300930022002300F046FF06B070BD01230093DDE90201DDE9042300F03CFFE1
:40128000EAE7DDE90201DDE9042300F031FAD1E701230093DDE90201DDE9042300F02CFFC8E700BFFB21E93FFFFFEF7F000000002DE9F04F964B21F000469E4291B0044636
:4012C0000D468B46904640F38180924B9E4226DC85A3D3E90023002940F3A08101F0E6F88D4B04469E420D4600F0858080A3D3E9002301F0DBF802460B46C8E900232046CB
:40130000294601F0D3F87AA3D3E9002301F0CEF80127C8E90201384611B0BDE8F08F7F4B9E4240F385807E4B9E425ADC4FEA2659A9F21649A6EB09552946044601F004FD83
:4013400001F002FA06460F4602460B4620462946CDE90A6701F0AAF80022724B01F05AFA0F46064601F0F0FC01F0EEF902460B4604460D4630463946CDE90C4501F096F88C
:401380000022684B01F046FA00220023CDE90E0101F0A8FC002800F06D81002320462946002201F09FFC002814BF012302235E480221019000914A460AA8414600F0BCFA3E
:4013C000BBF1000FC0F24881074606E000220023C8E90045C8E902230027384611B0BDE8F08F02460B4601F061F80027C8E90201C8E90001F1E740A3D3E9002301F056F8A0
:401400003FA3D3E9002304460D4601F04FF802460B46C8E900232046294601F047F838A3D3E9002301F042F80127C8E90201D4E700F01AFF34A3D3E9002304460D4601F0DB
:40144000E9F90022394B01F033F801F07DFC074601F07AF924A3D3E90023CDE9060101F0D9F902460B462046294601F01FF820A3D3E90023CDE90201DDE9060101F0CAF935
:401480001F2FCDE90401DDE9020153DC284B7A1E53F82230B3424DD0DDE9042301F006F804460D46C8E90045DDE9020122462B4600F0FCFFDDE9042300F0F8FFBBF1000FE6
:4014C000C8E9020189DA264601F1004305F100447F42C8F80060C8F80440C8F80800C8F80C307AE7AFF3008000004054FB21F93F3163621A61B4D03D0000601A61B4D03D18
:401500007370032E8A19A33B83C8C96D305FE43FFB21E93F7BD90240FB21F93FFB213941FFFFEF7F00007041743700000000E03FF4360000DDE9042300F0B8FF3615C1F37B
:401540000A53F31A04460D46102BC8E90045ABDD5BA3D3E90023DDE9060101F05BF904460D4622462B46DDE9020100F09FFFCDE90801DDE90823DDE9020100F097FF224688
:401580002B4600F093FF50A3D3E9002304460D46DDE9060101F03EF922462B4600F086FFCDE90401DDE90423DDE9080100F07EFFC1F30A53F61A04460D46312EC8E900458F
:4015C00078DD43A3D3E90023DDE9060101F022F904460D4622462B46DDE9080100F066FFCDE90201DDE90223DDE9080100F05EFF22462B4600F05AFF37A3D3E90023044679
:401600000D46DDE9060101F005F922462B4600F04DFFCDE90401DDE902013DE700F048FF314B04469E420D4626D02DA3D3E9002300F03EFF02460B46C8E90023204629469A
:4016400000F034FF26A3D3E9002300F031FF4FF0FF37C8E90201C0E6D8F80420D8F80C3002F1004203F100434742C8F80420C8F80C30B2E603239AE611A3D3E9002300F01A
:4016800017FF11A3D3E9002304460D4600F010FF02460B46C8E900232046294600F006FF09A3D3E9002300F003FF4FF0FF37C8E9020192E6DDE90823CDE90223F4E600BF2B
:4016C0000000601A61B4D03D7370032E8A19A33B0000002E8A19A33BC14920259A837B393163621A61B4D03DFB21F93FAFF300802DE9F04F21F00049B9F1795F85B0064690
:401700000F4692469B466BDA01F01EFB002800F0EA8032463B463046394601F07BF874A3D3E9002304460D4601F074F872A3D3E9002300F0BDFE22462B4601F06BF870A3A9
:40174000D3E9002300F0B2FE22462B4601F062F86DA3D3E9002300F0ABFE22462B4601F059F86BA3D3E9002300F0A0FE22462B4601F050F868A3D3E9002300F099FE2246BD
:401780002B4601F047F8CDE90001204629460022634B01F03FF8DDE90023804689462046294601F037F8524604460D465B463046394601F02FF802460B462046294600F050
:4017C00075FE02460B464046494600F06FFE02460B460020534900F069FE05B0BDE8F08F02460B4601F016F841A3D3E9002304460D4601F00FF840A3D3E9002300F058FEEE
:4018000022462B4601F006F83DA3D3E9002300F04DFE22462B4600F0FDFF3BA3D3E9002300F046FE22462B4600F0F4FF38A3D3E9002300F03BFE22462B4600F0EBFF36A305
:40184000D3E9002300F034FE2B46224600F0E2FF354BCDE90001994597DD344B0022994539DCA9F50013002200202E499046994600F01CFECDE90201204629460022284B54
:4018800000F0C8FF42464B4600F010FEDDE90023804689462046294600F0BCFF524604460D465B463046394600F0B4FF02460B462046294600F0FAFD02460B4640464946EB
:4018C00000F0F4FD02460B46DDE9020100F0EEFD05B0BDE8F08F164B4FF00008CDE90223DFF85090C8E70F49002005B0BDE8F08FD43888BEE9FAA8BDC4B1B4BD9EEE213E4C
:40190000AD529C804F7E923E9015CB19A001FA3E7751C1166CC1563F4C5555555555A53F0000E03F0000F03F3233D33F0000E93F0000E73F0000D23F2DE9F04F7B4DD41E20
:4019400085FB0465E417C4EBA505ADF51D7D25EAE5750E959946764CEB43A69D09F1FF3654F8254004960C9407900E9C049D0C9803EB430302EBC303A61B2C180B910A930B
:4019800017D4A798344401340DF1880800EB8605002709E0E85900F0D7FE0136A642E8E9020107F1040704D0002EF3DA00200021F3E70C9C002C2DDB0C9D74AE06EBC50BEE
:4019C00024A800EBC90A0DF5E478CDF80CB0049C002CC0F29581079D5746A5F1080B00240025002677E90223FBE9020100F012FF02460B462046294600F05AFD01364E45A5
:401A000004460D46EED1E8E90245039C0AF1080AA045DCD10C9D10AC04EB850602940F960395039E9CABF60033440696039E53E92845002E2EDD069E0DF5E87AB244039E2F
:401A40000DF13C0B0BEB860B0DF13C080022394B2046294600F0DEFE01F076F900F074FE0022354B06460F4600F0D4FE02460B462046294600F01AFD01F066F9324648F8CD
:401A8000040F3B467AE9020100F012FDD84504460D46DBD1204629460A9A00F079FC00224FF07F5304460D4600F0B4FE00F0E0FB0022224B00F0AEFE02460B462046294613
:401AC00000F0F4FC04460D4601F03EF9824600F03BFE02460B462046294600F0E7FC0A9C0646002C0F4640F3F280039D10A8691E50F82130C4F1180043FA00F202FA00F097
:401B0000C4F117051B1A43FA05F510AC44F821309244002D3EDD039C0AF1010A002C40F3F98010AB03EB8401002411E0ABAAAA2A7C3800000000703E0000704100002040A5
:401B4000C2F1807012B143F8040C01248B420DD053F8042B002CF3D0C2F1FF1202F57F428B4243F8042C4FF00104F1D10A9800280DDD012800F0B380022808D1039910A86B
:401B80004B1E50F82320C2F3150240F82320022D00F08480304639460022002301F0A2F8002800F0B980039C0C9E04F1FF3846450DDC10A800EB84030F98002253F8041D69
:401BC000834242EA0102F9D1002A40F044820C9C10AD621E55F82230002B40F0548205EB8202012352F8041D01330029FAD0039E039C1E44631CB3420D9649DC049D0E9EFD
:401C00002B44214622460D9D3244494424AE03F1FF3B2B1B06EBC1040994A79D069C06EBCB0B74AE05EB8202DB0026440392089306964FF00008039D08F1080855F8040F7C
:401C4000039500F081FD049EEBE90201002E22DB079C099FA4F1080A474400240025002677E90223FAE9020100F0D4FD02460B462046294600F01CFC01364E4504460D46C5
:401C8000EED1069EE6E90245089C0696A045D2D10D9D0395C5E600240025F2E732463B460020924900F002FC06460F46002C3FF471AF0A9A00208D4900F06AFB02460B464A
:401CC0003046394600F0F2FB06460F4662E710D1039D10A86B1E50F82350ED1519E7039910A84B1E50F82320C2F3160240F823204DE700227E4B01F013F820B9054649E7AA
:401D0000002400257FE6039C0225002C0AF1010A3FF707AF002429E70A9C3046624239460695CDF81CA000F033FB0022714B04460D4600F0F5FF002800F0BB8100226E4BD6
:401D40002046294600F066FD00F0FEFF064600F0FBFC0022674B00F05DFD02460B462046294600F0A3FB00F0EFFF039C0A9D10A904F10108183541F824000A9541F828601C
:401D80000A9A0020594900F003FBB8F1000F04460D465ADB08F1010610A874A9039600EB860701EBC60657F8040D00F0CDFC22462B4600F02FFD002266E902014E4B204626
:401DC000294600F027FD029A044697420D46EAD108F1005B0BF1FF3B74AB0DF5987ACDF82080DDF8308003EBCB0B4FF00009CDF810A0B8F1000FC0F22881DFF800A15F463B
:401E000000240025002601E04E4510DCF7E90223FAE9020100F0FEFC02460B462046294600F046FB0136B04504460D46ECDA049EABF1080B06EBC903C3E90045039C09F138
:401E40000109A145D5D1DDF82080A69D032D00F29780DFE815F0DA009C009C000400B8F1000F40F312810DF5987A08F101030AEBC3034FEAC80B039399460AEB0B030DF529
:401E80009C7CD3E9006701E026462F4659E9044532463B4620462946CDF804C0CDE9044500F006FB04460D4622462B46DDE9040100F0FCFA32463B4600F0FAFA69E90201FA
:401EC000DDF804C049E90245E145DDD1B8F1010F40F30D81DDF80CC00AEB0B03CDF810A00AF1100BD3E90045E2460BE00000F03F0000E03F000070410000703E88380000D2
:401F000034463D465AE9048922462B464046494600F0CEFA06460F4632463B464046494600F0C4FA22462B4600F0C2FA6AE90201DA454AE90267E3D1DDF810A0039C002043
:401F4000002174E9022300F0B3FAA345F9D1069D002D00F0A280DAF80450DAF80C400B9EDAF80020DAF8083005F1004504F1004401F100417560F4603260B36030617161CC
:401F8000079C04F007000DF51D7DBDE8F08FB8F1000FC0F2A7800DF5987A08F10104002200230AEBC4041046194674E9022300F07FFA5445F9D102460B46069E002E47D099
:401FC000104603F100410B9CC4E90001DAE9000100F06CFAB8F1000F07DD0AEBC808FAE9022300F065FAC245F9D1069D002D6AD00B9E024601F10043C6E90223079C04F0C3
:4020000007000DF51D7DBDE8F08FB8F1000F66DB08F101044CAD05EBC4040020002174E9022300F045FAAC42F9D1069C002C50D00B9D024601F10043C5E90023079C04F00C
:4020400007000DF51D7DBDE8F08F00240025EEE610461946B7E70A9E069510AD55F82830183ECDF81CA00A96002B7FF489AE05EB8803324653F8041D08F1FF38183A00292E
:40208000F8D00A927CE60123B1E5069D002000210DF5987A002D7FF45EAF0B9EDAE90023C6E90401DAE90201C6E90023C6E9020166E72046294600F047FEDDF80C8010AAFC
:4020C00042F828005CE60B9E02460B46C6E9022394E70B9D02460B46C5E90023AEE700200021A2E7002200230DF5987A65E7002000212CE7000000002DE9F04F21F0004695
:40210000B6F1795F85B004460D469046994604DA00F01AFE002800F0848022462B462046294600F077FB22462B4606460F4600F071FB3FA3D3E9002382468B463046394662
:4021400000F068FB3CA3D3E9002300F0AFF932463B4600F05FFB3AA3D3E9002300F0A8F932463B4600F056FB37A3D3E9002300F09DF932463B4600F04DFB35A3D3E90023C5
:4021800000F096F90E9BCDE90201002B33D0404649460022324B00F03DFBDDE90223CDE900015046594600F035FB02460B46DDE9000100F07BF932463B4600F02BFB4246E2
:4021C0004B4600F073F924A3D3E9002306460F465046594600F01EFB02460B463046394600F066F902460B462046294600F05EF905B0BDE8F08FDDE902233046394600F032
:4022000009FB15A3D3E9002300F050F952465B4600F000FB22462B4600F04AF905B0BDE8F08F2046294605B0BDE8F08FAFF300807CD5CF5A3AD9E53DEB9C2B8AE6E55A3EA3
:402240007DFEB157E31DC73ED561C119A0012A3FA6F810111111813F495555555555C53F0000E03FAFF3008021F00041704700BF2DE9F84FC1F30A57A7F2FF36132E024653
:402280000B4604460D4689468A4680461CDC002E40DB3D4F374107EA010C5CEA000C18D037A3D3E9002300F003F90022002300F041FD28B1002D42DB2AEA07094FF00008A8
:4022C00040464946BDE8F88F332E06DDB6F5806F31D010461946BDE8F88FA7F2134C4FF0FF3B2BFA0CFB1BEA000FF2D024A3D3E9002300F0DDF80022002300F01BFD00288A
:40230000DED0002D22DB28EA0B08D14640464946BDE8F88F1AA3D3E9002300F0C9F80022002300F007FD0028CAD0002D1CDB4FF00008C146C4E700F0BBF8BDE8F88F4FF4D1
:40234000801A4AFA06F606EB050AB5E7142E14D0C7F586670123033703FA07F717EB040828BF05EB030ACEE725F00042074B224318BF99464FF00008A2E705F1010AC2E7DA
:402380009C7500883CE4377EFFFF0F000000F0BFC1F30A532DE9F041904606460F460A461BBB21F00043034334D0354B002200F031FA344B064698450F463BDBC1F30A537F
:4023C000363B0A46434440F2FE718B4216DD28A1D1E9000132463B4600F05AF824A3D3E9002300F017FABDE8F08140F2FF74A34227D0434440F2FE718B42E8DC002B0BDD6B
:4024000022F0FF4222F4E00242EA035730463946BDE8F081BDE8F08113F1350F17DA4CF250339845D3DC14A1D1E9000132463B4600F02EF810A3D3E9002300F0EBF9BDE89A
:40244000F08102460B4600F033F8BDE8F08122F0FF4222F4E002363342EA0357304639460022094B00F0D6F9BDE8F081AFF300809C7500883CE4377E59F3F8C21F6EA501DE
:4024800000005043B03CFFFF0000903CAFF3008030B403F0004321F0004243EA020130BC704700BF81F0004102E000BF83F0004330B54FEA41044FEA430594EA050F08BF6C
:4024C00090EA020F1FBF54EA000C55EA020C7FEA645C7FEA655C00F0E2804FEA5454D4EB5555B8BF6D420CDD2C4480EA020281EA030382EA000083EA010180EA020281EADB
:402500000303362D88BF30BD11F0004F4FEA01314FF4801C4CEA113102D0404261EB410113F0004F4FEA03334CEA133302D0524263EB430394EA050F00F0A780A4F1010490
:40254000D5F1200E0DDB02FA0EFC22FA05F2801841F1000103FA0EF2801843FA05F359410EE0A5F120050EF1200E012A03FA0EFC28BF4CF0020C43FA05F3C01851EBE37161
:4025800001F0004507D54FF0000EDCF1000C7EEB00006EEB0101B1F5801F1BD3B1F5001F0CD349085FEA30004FEA3C0C04F101044FEA445212F5800F80F09A80BCF1004F18
:4025C00008BF5FEA500C50F1000041EB045141EA050130BD5FEA4C0C404141EB010111F4801FA4F10104E9D191F0000F04BF01460020B1FA81F308BF2033A3F10B03B3F10E
:4026000020020CDA0C3208DD02F1140CC2F10C0201FA0CF021FA02F10CE002F11402D8BFC2F1200C01FA02F120FA0CFCDCBF41EA0C019040E41AA2BF01EB0451294330BD7F
:402640006FEA04041F3C1CDA0C340EDC04F11404C4F1200220FA04F001FA02F340EA030021FA04F345EA030130BDC4F10C04C4F1200220FA02F001FA04F340EA0300294607
:4026800030BD21FA04F0294630BD94F0000F83F4801306BF81F480110134013D4EE77FEA645C18BF7FEA655C29D094EA050F08BF90EA020F05D054EA000C04BF1946104614
:4026C00030BD91EA030F1EBF0021002030BD5FEA545C05D14000494128BF41F0004130BD14F580043CBF01F5801130BD01F0004545F0FE4141F470014FF0000030BD7FEA95
:40270000645C1ABF194610467FEA655C1CBF0B46024650EA013406BF52EA033591EA030F41F4002130BD00BF90F0000F04BF0021704730B54FF4806404F132044FF00005D1
:402740004FF0000150E700BF90F0000F04BF0021704730B54FF4806404F1320410F0004548BF40424FF000013EE700BF42004FEAE2014FEA31014FEA02701FBF12F07F43BA
:4027800093F07F4F81F06051704792F0000F14BF93F07F4F704730B54FF4607401F0004521F0004120E700BF50EA010208BF704730B54FF000050AE050EA010208BF7047B0
:4027C00030B511F0004502D5404261EB41014FF4806404F132045FEA915C3FF4DCAE4FF003025FEADC0C18BF03325FEADC0C18BF033202EBDC02C2F1200300FA03FC20FA10
:4028000002F001FA03FE40EA0E0021FA02F11444C1E600BF70B54FF0FF0C4CF4E06C1CEA11541DBF1CEA135594EA0C0F95EA0C0F00F0DEF82C4481EA030621EA4C5123EA64
:402840004C5350EA013518BF52EA033541F4801143F4801338D0A0FB02CE4FF00005E1FB02E506F00042E0FB03E54FF00006E1FB03569CF0000F18BF4EF0010EA4F1FF0428
:40288000B6F5007F64F5407404D25FEA4E0E6D4146EB060642EAC62141EA55514FEAC52040EA5E504FEACE2EB4F1FD0C88BFBCF5E06F1ED8BEF1004F08BF5FEA500E50F1D4
:4028C000000041EB045170BD06F0004646EA010140EA020081EA0301B4EB5C04C2BFD4EB0C0541EA045170BD41F480114FF0000E013C00F3AB8014F1360FDEBF002001F0BE
:40290000004170BDC4F10004203C35DA0C341BDC04F11404C4F1200500FA05F320FA04F001FA05F240EA020001F0004221F0004110EBD37021FA04F642EB06015EEA430E24
:4029400008BF20EAD37070BDC4F10C04C4F1200500FA04F320FA05F001FA04F240EA020001F0004110EBD37041F100015EEA430E08BF20EAD37070BDC4F1200500FA05F212
:402980004EEA020E20FA04F301FA05F243EA020321FA04F001F0004121FA04F220EA020000EBD3705EEA430E08BF20EAD37070BD94F0000F0FD101F00046400041EB01011C
:4029C00011F4801F08BF013CF7D041EA060195F0000F18BF704703F00046520043EB030313F4801F08BF013DF7D043EA0603704794EA0C0F0CEA135518BF95EA0C0F0CD0B2
:402A000050EA410618BF52EA4306D1D181EA030101F000414FF0000070BD50EA410606BF1046194652EA430619D094EA0C0F02D150EA013613D195EA0C0F05D152EA0336FB
:402A40001CBF104619460AD181EA030101F0004141F0FE4141F470014FF0000070BD41F0FE4141F4780170BD70B54FF0FF0C4CF4E06C1CEA11541DBF1CEA135594EA0C0F34
:402A800095EA0C0F00F0A7F8A4EB050481EA030E52EA03354FEA013100F088804FEA03334FF0805545EA131343EA12634FEA022245EA111545EA10654FEA00260EF0004194
:402AC0009D4208BF964244F1FD0404F5407402D25B084FEA3202B61A65EB03055B084FEA32024FF480104FF4002CB6EB020E75EB030E22BFB61A754640EA0C005B084FEA37
:402B00003202B6EB020E75EB030E22BFB61A754640EA5C005B084FEA3202B6EB020E75EB030E22BFB61A754640EA9C005B084FEA3202B6EB020E75EB030E22BFB61A7546CB
:402B400040EADC0055EA060E18D04FEA051545EA16754FEA06164FEAC30343EA52734FEAC2025FEA1C1CC0D111F4801F0BD141EA00014FF000004FF0004CB6E711F4801FFB
:402B800004BF01430020B4F1FD0C88BFBCF5E06F3FF6AFAEB5EB030C04BFB6EB020C5FEA500C50F1000041EB045170BD0EF0004E4EEA113114EB5C04C2BFD4EB0C0541EA11
:402BC000045170BD41F480114FF0000E013C90E645EA060E8DE60CEA135594EA0C0F08BF95EA0C0F3FF43BAF94EA0C0F0AD150EA01347FF434AF95EA0C0F7FF425AF1046F2
:402C000019462CE795EA0C0F06D152EA03353FF4FDAE1046194622E750EA410618BF52EA43067FF4C5AE50EA41047FF40DAF52EA43057FF4EBAE12E74FF0FF3C06E000BF88
:402C40004FF0010C02E000BF4FF0010C4DF804CD4FEA410C7FEA6C5C4FEA430C18BF7FEA6C5C1BD001B050EA410C0CBF52EA430C91EA030F02BF90EA020F0020704710F194
:402C8000000F91EA030F58BF994208BF90422CBFD8176FEAE37040F0010070474FEA410C7FEA6C5C02D150EA013C07D14FEA430C7FEA6C5CD6D152EA033CD3D05DF8040BC4
:402CC000704700BF8446104662468C461946634600E000BF01B5FFF7B7FF002848BF10F1000F01BD4DF808EDFFF7F4FF0CBF012000205DF808FB00BF4DF808EDFFF7EAFF5F
:402D000034BF012000205DF808FB00BF4DF808EDFFF7E0FF94BF012000205DF808FB00BF4DF808EDFFF7CEFF94BF012000205DF808FB00BF4DF808EDFFF7C4FF34BF0120DF
:402D400000205DF808FB00BF4FEA410212F5001215D211D56FF47873B3EB625212D94FEAC12343F0004343EA505311F0004F23FA02F018BF404270474FF00000704750EA2D
:402D8000013005D111F0004008BF6FF0004070474FF00000704700BF70B50E4B0E4D0024ED1AAD101E46AC4204D056F8242090470134F8E700F0A8FD084D094B0024ED1A2C
:402DC000AD101E46AC4204D056F8242090470134F8E770BD14390000143900001C3900001439000010B50023934203D0CC5CC4540133F9E710BD02440346934202D003F828
:402E0000011BFAE770470000194B10B51C68A36BD3B9182000F02CFB43F20E33A06303804AF6CD33438041F2342383804EF26D63C3804DF6EC630381052343810B23838135
:402E400001220023C0E90423A16B0A4C0A6948695443094B03FB0040A2FB03230132034443F10003C1E9042323F0004010BD00BF7C81FF1F2DF451582D7F954C0EB400B580
:402E80004FF402719CB0ADF814106FF00041049107914FF6FF711DABADF81610084953F8042B02900690086802A9019300F06EF8029B00221A701CB05DF804EB03B0704777
:402EC0007C81FF1F034613F8012B002AFBD1181A013870472DE9F0478D688146AB420C4692461F4643D38B8913F4906F3DD0266809690222C1EB0608666906EB460696FBE2
:402F0000F2F608F101023A44964238BF16465B050FD5314600F022FB054698B121694246FFF760FFA38923F4906343F08003A38113E0324600F066FB054670B948462169E9
:402F400000F0C8FA0C23C9F80030A3894FF0FF3043F04003A381BDE8F087256166614544C8EB06062560A6603D46AF4200D23D462A462068514600F091FAA36800205B1B9B
:402F8000A36023681D442560BDE8F0872DE9F0439DB003938B8907461C060D4616460CD50B6953B9402100F0D9FA2860286110B90C233B60C7E040236B6100230993202322
:402FC0008DF8293030238DF82A3033461C4613F8012B1AB9B4EB06090FD002E0252AF5D1F8E73846294632464B46FFF773FF013000F0A480099B4B4409932378002B00F051
:403000009D8000234FF0FF3204930793059206938DF853301A9304F101094D4E4C4630462178052200F02CFA09F10109049B28B1861B0120B04003430493EEE7D90644BF90
:4030400020228DF853201A0744BF2B228DF8532022782A2A02D0079B21460EE0039A111D12680391002A01DB079204E0524243F002030792049301340AE00C462278013161
:40308000303A092A03D80A2000FB0323F5E7079323782E2B19D163782A2B09D1039B02341A1D1B680392002BB8BF4FF0FF330BE0611C00230C4622780131303A092A03D898
:4030C0000A2000FB0323F5E70593224E21783046032200F0D5F930B1861B4020B040049B01340343049321781B480622661C8DF8281000F0C5F988B1184B33B9039B0733BB
:4031000023F007030833039314E003AB0093384604A92A46124BAFF3008007E003AB0093384604A92A460E4B00F08EF8B0F1FF3F804603D0099B4344099346E7AB895B06BF
:4031400001D4099801E04FF0FF301DB0BDE8F083D2380000D8380000DC38000000000000D52E00002DE9F84315461F468A680B6906469A42A8BF13462B6091F843200C464C
:40318000DDF820800AB101332B602368990602D52B6802332B60236813F006091DD094F843302268003318BF012392061FD5E118302081F843005A1C94F845102244023308
:4031C00082F8431013E03046394604F119020123C047013007D009F10109E2682B68D31A9945F0DBDBE74FF0FF30BDE8F8833046394604F14302C0470130F4D023682A68C8
:4032000003F00603E168042B08BFC2EB01052369A2680CBF25EAE57500259A42C4BFC3EB0203ED184FF00009A9450ADA3046394604F11A020123C0470130D4D009F1010976
:40324000F2E70020BDE8F8832DE9FF470E7E80466E2E0C4691469A460C9D01F1430000F0A58011D8632E22D009D8002E00F0AF80582E40F0BF8081F845607B4A4FE0642EBC
:403280001ED0692E1CD0B5E0732E00F0A48009D86F2E2BD0702E40F0AD800B6843F020030B6038E0752E21D0782E34D0A2E02B6801F142071A1D1B682A6081F842309DE059
:4032C00022682B6812F0800F03D01A1D2A601D6805E05106F9D51A1D2A60B3F90050002D39DA2D236D4284F8433034E022682B6812F0800F03D01A1D2A601D6804E05206FB
:40330000F9D51A1D2A601D88237E574A6F2B14BF0A2308231BE07823544A84F845302368296813F0800F01F104062E6001D00D6802E05F06FBD50D88DE0744BF43F02003C5
:4033400023601DB9236823F0200323601023002184F8431001E0444A0A236668002EA66003DB216821F00401216005B96EB104F14201B5FBF3F603FB1655555D0F4601F8DA
:4033800001593546002EF4D100E00746082B0AD12368DD0707D5626823699A4203DC302307F8013C013FC01B20612CE009682B6811F0800F626904D0191D29601B681A6088
:4033C00005E04906F8D5191D29601B681A8000232361074617E02B681A1D2A601F683846FFF770FD63682061984288BF23612369636005E004F1420784F842600123236120
:40340000002384F84330CDF800A04046214603AA4B46FFF7A7FE013002D14FF0FF301FE0404649463A462369D0470130F5D023689B0705D4E068039B9842B8BF18460FE026
:403440000025E268039BD31A9D42F3DA4046494604F119020123D0470130DED00135F0E704B0BDE8F08700BFE3380000F4380000024B0146186800F071B800BF7C81FF1F7D
:4034800010B5C9B202449042034605D01C7801308C42F8D1184610BD002010BD814270B501D300230EE08C18A042FAD28518134613F1FF3305D351426618F65C2944CE540D
:4034C000F6E770BD934203D0CC5CC4540133F9E770BD000030B500293CD051F8042C0B1F1D49002AB8BF9B180A680C4612B95A600B6030BD93420DD219685818904203D136
:403500005A581144426819605A60236030BD994203D80A4651680029F9D1146815199D420AD11B682344D0188842136012D10868034413604B680CE002D90C23036030BD0C
:4035400018681C188C4203D10C684968204418605960536030BD00BF7C83FF1F70B5CD1C25F0030508350C2D38BF0C25002D06463FDB8D423DD3214B1C6818462146A1B17D
:403580000B685B1B0ED40B2B03D90B60CC18CD501FE08C4202D1626802601AE04B6863600C4616E00C464968E9E7154C23681BB9304600F04DF820602946304600F048F86B
:4035C000431C014615D0C41C24F0030484420AD1256004F10B00231D20F00700C31A0BD05A42E25070BD3046611A00F031F80130EED10C233360002070BD00BF7C83FF1F30
:403600007883FF1FF8B5064614460D4621B91146BDE8F840FFF7A2BF1AB9FFF75BFF2046F8BD00F025F8A0420ED230462146FFF795FF074650B129462246FFF7D3FB304693
:403640002946FFF747FF01E02846F8BD3846F8BD38B5064C002305460846236000F012F8431C02D1236803B12B6038BD2020002051F8040C002802DA04390B58184404380A
:4036800070470000094A136863B118446946884202D8106018467047054B0C221A604FF0FF307047034B1360EFE700BF8083FF1F20200020282000200000000000000000E1
:4036C00025750A00105100406000C05100401000F0510040100000000140001000140140000800400140000A004C01400002005001402000FB21F93FFB2109407CD912405A
:40370000FB2119407A6A1F407CD92240BBFD2540FB2129403A462C407A6A2F405C4731407CD932409C6B3440BBFD3540DB8F3740FB2139401BB43A403A463C405AD83D404C
:403740007A6A3F404C7E40405C4741406C1042407CD942408CA243409C6B4440AC344540BBFD4540CBC64640DB8F4740EB584840FB21494083F9A200444E6E00FC291500F5
:40378000D1572700DD34F50062DBC0003C999500419043006351FE00BBDEAB00B761C5003A6E2400D24D42004906E00009EA2E001C92D100EB1DFE0029B11C00E83EA700A1
:4037C000F535820044BB2E009CE98400B4267000417E5F00D6913900538339009CF439008B5F840028F9BD00F81F3B00DEFF97000F980500112FEF000A5A8B006D1F6D0032
:40380000CF7E360009CB2700464FB7009E663F002DEA5F00BA277500E5EBC7003D7BF100F739070092528A00FB6BEA001FB15F00085D8D00300356007BFC4600F0AB6B000D
:4038400020BCCF0036F49A00E3A91D005E619100081BE60085996500A0145F008D40680080D8FF0027734D0006063100CA561500C9A873007BE260006B8CC0000200000002
:403880000300000004000000060000000000000000000040FB21F93F000000002D44743E000000809846F83C0000006051CC783B00000080831BF0390000004020257A3804
:4038C000000000802282E336000000001DF369354300232D302B2000686C4C0065666745464700303132333435363738394142434445460030313233343536373839616239
:403900006364656600000000F8B500BFF8BC08BC9E4670474D00000029040000F8B500BFF8BC08BC9E46704729000000403900000881FF1F78000000A89E00000000000076
:403940000000000000366E01C05D0000180000000000E02E0000000000000000000000000000000000000000000000000000000000000000D0380000000000000000000057
:40398000000000000000000000000000000000000000000000000000000000000000000000000000000000000000000000000000000000001C81FF1F00000000000000004C
:4039C00000000000000000000000000000000000000000000000000000000000000000000000000000000000000000000000000000000000000000000000000000000000C7
:403A00000000000000000000000000000000000000000000000000000000000000000000000000000000000000000000000000000000000000000000000000000000000086
:403A40000000000000000000000000000000000000000000000000000000000000000000000000000000000000000000000000000000000000000000000000000000000046
:403A80000000000000000000000000000000000000000000000000000000000000000000000000000000000000000000000000000000000000000000000000000000000006
:020000040003F7
:0200000480007A
:40000000025A0040015B0040016400405C0201403003014003050140021501400117014001190140021B0140034001400441014003420140024301400244014001450140F9
:4000400003460140014701400648014003490140084C0140044D01400250014001510140870197012F84820F00130204061508400C130E0C160820032214240A26142C20C0
:40008000301032403420360F3A803E154046410145E0460C470B481649FF4AFF4BFF4EF04F44500C540158045A045B045C015D115F0166C06A406B02801082AC85808603CF
:4000C00087138C0C8E719620970C98DC992C9A229B439F08A010A171A240A30EA414A809AAD0AD71AF06B0E0B3C0B41FB50FB730B988BA02BB20BF40C001C540C9FFCA073A
:40010000CBFFCC40CD20CEF0CF05D008D804D904DA04DC11DD01DF01E040E1A8E240E32000460408055109280F10108011081208140216801708184419111C021D401E6875
:4001400020012120220C231829412A4230803120320438084001464248804C044D0150045108550456805C025D015E485F20C0FDC226C4BECA09CC0ECE02D098D220D6F0B7
:40018000B290B320EA80EC20EE08E002E002EC20EE0833203720CC3063029F20A720D6409F20A720B3019F20A7203020CC08A4203020A420CC08A420272187019F20A720A7
:4001C000C8A0E040AF20B320EE101F8034013A108401A420C601CC01CE08AF80B020B210EC0400020802000F10000070700010000F0000000000000000000000000000002B
:4002000000000000000000000000000000000000000000000000000000000000000000000000000000000000000000000000000000000000000000000000000000000000BE
:40024000000000000000000000000000000000000000000000000000000000000000000000000000000000000000000000000000000000000000000000000000000000007E
:40028000000000000000000000000000000000000000000000000000000000000000000000000000000000000000000000000000000000000000000000000000000000003E
:4002C00000000000000000000000000000000000000000000000000000000000000000000000000000000000000000000000000000000000000000000000000000000000FE
:0200000490006A
:0400000000004005B7
:0200000490105A
:04000000BC90ACAF55
:0200000490303A
:020000001AAA3A
:0200000490402A
:4000000000000000000000000000000000000000000000000000000000000000000000000000000000000000000000000000000000000000000000000000000000000000C0
:400040000000000000000000000000000000000000000000000000000000000000000000000000000000000000000000000000000000000000000000000000000000000080
:400080000000000000000000000000000000000000000000000000000000000000000000000000000000000000000000000000000000000000000000000000000000000040
:4000C0000000000000000000000000000000000000000000000000000000000000000000000000000000000000000000000000000000000000000000000000000000000000
:0200000490501A
:0C00000000012E12306900012E294B1364
:00000001FF